{
  "_format": "hh-sol-artifact-1",
  "contractName": "PetPortal",
  "sourceName": "contracts/PetPortal.sol",
  "abi": [
    {
      "inputs": [],
      "stateMutability": "payable",
      "type": "constructor"
    },
    {
      "anonymous": false,
      "inputs": [
        {
          "indexed": true,
          "internalType": "address",
          "name": "from",
          "type": "address"
        },
        {
          "indexed": false,
          "internalType": "uint256",
          "name": "timestamp",
          "type": "uint256"
        },
        {
          "indexed": false,
          "internalType": "string",
          "name": "message",
          "type": "string"
        }
      ],
      "name": "NewPet",
      "type": "event"
    },
    {
      "inputs": [],
      "name": "getAllPets",
      "outputs": [
        {
          "components": [
            {
              "internalType": "address",
              "name": "petOwner",
              "type": "address"
            },
            {
              "internalType": "string",
              "name": "message",
              "type": "string"
            },
            {
              "internalType": "uint256",
              "name": "timestamp",
              "type": "uint256"
            }
          ],
          "internalType": "struct PetPortal.Pet[]",
          "name": "",
          "type": "tuple[]"
        }
      ],
      "stateMutability": "view",
      "type": "function"
    },
    {
      "inputs": [],
      "name": "getTotalPets",
      "outputs": [
        {
          "internalType": "uint256",
          "name": "",
          "type": "uint256"
        }
      ],
      "stateMutability": "view",
      "type": "function"
    },
    {
      "inputs": [
        {
          "internalType": "address",
          "name": "",
          "type": "address"
        }
      ],
      "name": "lastSentImage",
      "outputs": [
        {
          "internalType": "uint256",
          "name": "",
          "type": "uint256"
        }
      ],
      "stateMutability": "view",
      "type": "function"
    },
    {
      "inputs": [
        {
          "internalType": "string",
          "name": "_message",
          "type": "string"
        }
      ],
      "name": "pet",
      "outputs": [],
      "stateMutability": "nonpayable",
      "type": "function"
    }
  ],
  "bytecode": "0x60806040526200004f6040518060400160405280601981526020017f57652068617665206265656e20636f6e737472756374656421000000000000008152506200007760201b620006481760201c565b606444426200005f9190620001c4565b6200006b919062000261565b60018190555062000308565b62000117816040516024016200008e919062000184565b6040516020818303038152906040527f41304fac000000000000000000000000000000000000000000000000000000007bffffffffffffffffffffffffffffffffffffffffffffffffffffffff19166020820180517bffffffffffffffffffffffffffffffffffffffffffffffffffffffff83818316178352505050506200011a60201b60201c565b50565b60008151905060006a636f6e736f6c652e6c6f679050602083016000808483855afa5050505050565b60006200015082620001a8565b6200015c8185620001b3565b93506200016e8185602086016200022b565b6200017981620002f7565b840191505092915050565b60006020820190508181036000830152620001a0818462000143565b905092915050565b600081519050919050565b600082825260208201905092915050565b6000620001d18262000221565b9150620001de8362000221565b9250827fffffffffffffffffffffffffffffffffffffffffffffffffffffffffffffffff0382111562000216576200021562000299565b5b828201905092915050565b6000819050919050565b60005b838110156200024b5780820151818401526020810190506200022e565b838111156200025b576000848401525b50505050565b60006200026e8262000221565b91506200027b8362000221565b9250826200028e576200028d620002c8565b5b828206905092915050565b7f4e487b7100000000000000000000000000000000000000000000000000000000600052601160045260246000fd5b7f4e487b7100000000000000000000000000000000000000000000000000000000600052601260045260246000fd5b6000601f19601f8301169050919050565b61120a80620003186000396000f3fe608060405234801561001057600080fd5b506004361061004c5760003560e01c806310e682e8146100515780635b236d971461008157806380f03fa61461009f578063925d3191146100bd575b600080fd5b61006b60048036038101906100669190610a01565b6100d9565b6040516100789190610e9c565b60405180910390f35b6100896100f1565b6040516100969190610d53565b60405180910390f35b6100a7610242565b6040516100b49190610e9c565b60405180910390f35b6100d760048036038101906100d29190610a2a565b61024b565b005b60036020528060005260406000206000915090505481565b60606002805480602002602001604051908101604052809291908181526020016000905b8282101561023957838290600052602060002090600302016040518060600160405290816000820160009054906101000a900473ffffffffffffffffffffffffffffffffffffffff1673ffffffffffffffffffffffffffffffffffffffff1673ffffffffffffffffffffffffffffffffffffffff16815260200160018201805461019e9061108d565b80601f01602080910402602001604051908101604052809291908181526020018280546101ca9061108d565b80156102175780601f106101ec57610100808354040283529160200191610217565b820191906000526020600020905b8154815290600101906020018083116101fa57829003601f168201915b5050505050815260200160028201548152505081526020019060010190610115565b50505050905090565b60008054905090565b42601e600360003373ffffffffffffffffffffffffffffffffffffffff1673ffffffffffffffffffffffffffffffffffffffff168152602001908152602001600020546102989190610fb9565b106102d8576040517f08c379a00000000000000000000000000000000000000000000000000000000081526004016102cf90610e7c565b60405180910390fd5b42600360003373ffffffffffffffffffffffffffffffffffffffff1673ffffffffffffffffffffffffffffffffffffffff16815260200190815260200160002081905550600160008082825461032e9190610fb9565b925050819055506103756040518060400160405280601881526020017f2573206861732073656e742061207065742070686f746f21000000000000000081525033836106e1565b600260405180606001604052803373ffffffffffffffffffffffffffffffffffffffff16815260200183815260200142815250908060018154018082558091505060019003906000526020600020906003020160009091909190915060008201518160000160006101000a81548173ffffffffffffffffffffffffffffffffffffffff021916908373ffffffffffffffffffffffffffffffffffffffff16021790555060208201518160010190805190602001906104349291906108e1565b506040820151816002015550506000606460015442446104549190610fb9565b61045e9190610fb9565b61046891906110bf565b90506104a96040518060400160405280601681526020017f52616e646f6d20232067656e6572617465643a2025730000000000000000000081525082610780565b80600181905550603281116105f4576104f76040518060400160405280600781526020017f257320776f6e21000000000000000000000000000000000000000000000000008152503361081c565b6000655af3107a4000905047811115610545576040517f08c379a000000000000000000000000000000000000000000000000000000000815260040161053c90610e3c565b60405180910390fd5b60003373ffffffffffffffffffffffffffffffffffffffff168260405161056b90610d3e565b60006040518083038185875af1925050503d80600081146105a8576040519150601f19603f3d011682016040523d82523d6000602084013e6105ad565b606091505b50509050806105f1576040517f08c379a00000000000000000000000000000000000000000000000000000000081526004016105e890610e5c565b60405180910390fd5b50505b3373ffffffffffffffffffffffffffffffffffffffff167f4302f7db7d1bf35eb172c360f71ecc4190107498ba1e26e46f440b981aad2f77428460405161063c929190610eb7565b60405180910390a25050565b6106de8160405160240161065c9190610d75565b6040516020818303038152906040527f41304fac000000000000000000000000000000000000000000000000000000007bffffffffffffffffffffffffffffffffffffffffffffffffffffffff19166020820180517bffffffffffffffffffffffffffffffffffffffffffffffffffffffff83818316178352505050506108b8565b50565b61077b8383836040516024016106f993929190610dc7565b6040516020818303038152906040527fe0e9ad4f000000000000000000000000000000000000000000000000000000007bffffffffffffffffffffffffffffffffffffffffffffffffffffffff19166020820180517bffffffffffffffffffffffffffffffffffffffffffffffffffffffff83818316178352505050506108b8565b505050565b6108188282604051602401610796929190610e0c565b6040516020818303038152906040527f9710a9d0000000000000000000000000000000000000000000000000000000007bffffffffffffffffffffffffffffffffffffffffffffffffffffffff19166020820180517bffffffffffffffffffffffffffffffffffffffffffffffffffffffff83818316178352505050506108b8565b5050565b6108b48282604051602401610832929190610d97565b6040516020818303038152906040527f319af333000000000000000000000000000000000000000000000000000000007bffffffffffffffffffffffffffffffffffffffffffffffffffffffff19166020820180517bffffffffffffffffffffffffffffffffffffffffffffffffffffffff83818316178352505050506108b8565b5050565b60008151905060006a636f6e736f6c652e6c6f679050602083016000808483855afa5050505050565b8280546108ed9061108d565b90600052602060002090601f01602090048101928261090f5760008555610956565b82601f1061092857805160ff1916838001178555610956565b82800160010185558215610956579182015b8281111561095557825182559160200191906001019061093a565b5b5090506109639190610967565b5090565b5b80821115610980576000816000905550600101610968565b5090565b600061099761099284610f18565b610ee7565b9050828152602081018484840111156109af57600080fd5b6109ba84828561104b565b509392505050565b6000813590506109d1816111bd565b92915050565b600082601f8301126109e857600080fd5b81356109f8848260208601610984565b91505092915050565b600060208284031215610a1357600080fd5b6000610a21848285016109c2565b91505092915050565b600060208284031215610a3c57600080fd5b600082013567ffffffffffffffff811115610a5657600080fd5b610a62848285016109d7565b91505092915050565b6000610a778383610cd0565b905092915050565b610a888161100f565b82525050565b610a978161100f565b82525050565b6000610aa882610f58565b610ab28185610f7b565b935083602082028501610ac485610f48565b8060005b85811015610b005784840389528151610ae18582610a6b565b9450610aec83610f6e565b925060208a01995050600181019050610ac8565b50829750879550505050505092915050565b6000610b1d82610f63565b610b278185610f97565b9350610b3781856020860161105a565b610b40816111ac565b840191505092915050565b6000610b5682610f63565b610b608185610fa8565b9350610b7081856020860161105a565b610b79816111ac565b840191505092915050565b6000610b91603483610fa8565b91507f547279696e6720746f207769746864726177206d6f7265206d6f6e657920746860008301527f616e2074686520636f6e7472616374206861732e0000000000000000000000006020830152604082019050919050565b6000610bf7602783610fa8565b91507f4661696c656420746f207769746864726177206d6f6e65792066726f6d20636f60008301527f6e74726163742e000000000000000000000000000000000000000000000000006020830152604082019050919050565b6000610c5d602983610fa8565b91507f4d7573742077616974203330207365636f6e6473206265666f7265207761766960008301527f6e6720616761696e2e00000000000000000000000000000000000000000000006020830152604082019050919050565b6000610cc3600083610f8c565b9150600082019050919050565b6000606083016000830151610ce86000860182610a7f565b5060208301518482036020860152610d008282610b12565b9150506040830151610d156040860182610d20565b508091505092915050565b610d2981611041565b82525050565b610d3881611041565b82525050565b6000610d4982610cb6565b9150819050919050565b60006020820190508181036000830152610d6d8184610a9d565b905092915050565b60006020820190508181036000830152610d8f8184610b4b565b905092915050565b60006040820190508181036000830152610db18185610b4b565b9050610dc06020830184610a8e565b9392505050565b60006060820190508181036000830152610de18186610b4b565b9050610df06020830185610a8e565b8181036040830152610e028184610b4b565b9050949350505050565b60006040820190508181036000830152610e268185610b4b565b9050610e356020830184610d2f565b9392505050565b60006020820190508181036000830152610e5581610b84565b9050919050565b60006020820190508181036000830152610e7581610bea565b9050919050565b60006020820190508181036000830152610e9581610c50565b9050919050565b6000602082019050610eb16000830184610d2f565b92915050565b6000604082019050610ecc6000830185610d2f565b8181036020830152610ede8184610b4b565b90509392505050565b6000604051905081810181811067ffffffffffffffff82111715610f0e57610f0d61117d565b5b8060405250919050565b600067ffffffffffffffff821115610f3357610f3261117d565b5b601f19601f8301169050602081019050919050565b6000819050602082019050919050565b600081519050919050565b600081519050919050565b6000602082019050919050565b600082825260208201905092915050565b600081905092915050565b600082825260208201905092915050565b600082825260208201905092915050565b6000610fc482611041565b9150610fcf83611041565b9250827fffffffffffffffffffffffffffffffffffffffffffffffffffffffffffffffff03821115611004576110036110f0565b5b828201905092915050565b600061101a82611021565b9050919050565b600073ffffffffffffffffffffffffffffffffffffffff82169050919050565b6000819050919050565b82818337600083830152505050565b60005b8381101561107857808201518184015260208101905061105d565b83811115611087576000848401525b50505050565b600060028204905060018216806110a557607f821691505b602082108114156110b9576110b861114e565b5b50919050565b60006110ca82611041565b91506110d583611041565b9250826110e5576110e461111f565b5b828206905092915050565b7f4e487b7100000000000000000000000000000000000000000000000000000000600052601160045260246000fd5b7f4e487b7100000000000000000000000000000000000000000000000000000000600052601260045260246000fd5b7f4e487b7100000000000000000000000000000000000000000000000000000000600052602260045260246000fd5b7f4e487b7100000000000000000000000000000000000000000000000000000000600052604160045260246000fd5b6000601f19601f8301169050919050565b6111c68161100f565b81146111d157600080fd5b5056fea2646970667358221220b1a0c9573bd8818e19467bbe7666f80ecc60550c57065c66de9deaf895eec0e564736f6c63430008000033",
  "linkReferences": {},
  "deployedLinkReferences": {}
}